:0309E90001790091
:10072B007F031209C212093C120887E47879F6FF9D
:10073B00120641E56E70FC7879E61460F624F160E0
:10074B002124DF60EE2431702E7F041209C27879E8
:10075B007601120903EF70DB78797631C2B4C2B53A
:10076B0080D17F021209C2120A3F787AEFF6120685
:10077B0041E47879F680BC7F011209C2E4FF1206CE
:07078B0041E47879F680AC2F
:10093C0043920143B208C2B4C2B57580FF7590FFF3
:10094C0075A0FF75B0F775C00FC290E4F5B8F5B798
:10095C00D2B8D2B9D2BC43B701C2A8C2AAD2AF2274
:0807F5007F647E007D007C00A2
:0807FD008F5F8E5E8D5D8C5C48
:10080500E4F560F561F582F583F560F561E4F5835E
:10081500F582AF82AE83E4FCFDAB5FAA5EA95DA85D
:100825005CD31202324006000000A380E50561E5B5
:0B08350061700205606405456070D230
:010840002295
:0209C2008F0F95
:1009C400E4F510E510C3950F501AC2B4C2B57F9870
:1009D4007E3A1207F9D2B4D2B57F987E3A1207F95B
:0409E400051080DF9B
:0109E80022EC
:10064100EF24FD601C24FC602A14603924077047E4
:10065100E4F569F568F567F5667572B87571088036
:1006610046E4F569756810F567F5667572B07571E0
:100671000A8034E4F569756820F567F566757220BE
:1006810075710A8022E4F569756830F567F566755C
:1006910072907571098010E4F569756850F567F518
:1006A10066757270757111F570F56F1204777F0FB1
:0606B10012096C02051D98
:100A0E00E4FEC297EF30E704D2928002C292D293F4
:0A0A1E00EF25E0FFC2930EBE08EAC8
:010A280022AB
:10090300E4F50FF510F50F120A451207F51203C9A6
:10091300EF7002800B7F0A1207F71206B7EF700819
:100923001208871207F580057510018009050FE588
:080933000FC3940540D1AF1081
:01093B002299
:030003000208C828
:1008C800C0E0C0F0C083C082C0D075D000C000C0F6
:1008D80001C002C003C004C005C006C0071200065C
:1008E800D007D006D005D004D003D002D001D00064
:0B08F800D0D0D082D083D0F0D0E0320E
:10084100626569206A696E67000000000073686F65
:10085100752064750000000000007368616E6720F8
:10086100686169000000007469616E206A696E0048
:100871000000000063686F6E672071696E67000099
:060881000001010307085D
:1009EC00046600000000046F0000000004620000B8
:1009FC000000046A00000000017800016E0001751F
:010A0C000FDA
:10088700D2B37F017E007D007C001207FDC2B37FDB
:10089700017E007D007C001207FDD2B37F017E0040
:1008A7007D007C001207FDC2A67F017E007D007CD3
:1008B700001207FDD2A67F017E007D007C000207A3
:0108C700FD33
:10025600E4F56E7F06120A347D357F17120A297F70
:100266000A7E007D007C001207FD7F06120A347D9F
:10027600037F89120A297F057E007D007C00120714
:10028600FD7D437FCF120A297F057E007D007C001D
:100296001207FD7D027FCB120A297D0A7F11120A01
:1002A600297878E6B44019E4FD7F1E120A297D0FED
:1002B6007F19120A297D107F1B120A297D2B8017B0
:1002C600E4FD7F1E120A297D3F7F19120A297D4807
:1002D6007F1B120A297D1F7F1D120A297F0A7E00B5
:1002E6007D007C001207FD7D047FCD120A297D4C1E
:1002F6007F17120A297F057E007D007C001207FD0C
:0E030600E4FD7FB9120A297D4F7FCF020A293C
:10047700787876401202567D027FBD120A297D48A0
:100487007F17120A297F0A7E007D007C001207FD74
:100497007D527F85120A29E4FD7F8F120A29E4FD28
:1004A7007F81120A29E4FD7F83120A297DFF7F8E4F
:1004B700120A297DFF7F8D120A297F017E007D00A8
:1004C7007C001207FD7DFF7F87120A297DFF7F8948
:1004D700120A297F017E007D007C001207FDE4FDE2
:1004E7007F22120A29E4FD7F23120A297DFF7F203C
:1004F700120A297D077F21120A297D777F24120A94
:10050700297D037F25120A297DBB7F26120A297DB3
:06051700017F27020A2902
:1007920078787608120256E4FD7FBD120A297D4858
:1007A2007F17120A297F0A7E007D007C001207FD56
:1007B2007D807F3C120A297D077F3E120A297DFF38
:1007C2007F38120A297D077F3A120A29E4FD7F4009
:1007D200120A297D087F42120A29E4FD7F44120A87
:1007E200297D087F46120A297F017E007D007C0058
:0307F2000207FDFE
:10000600E4F508C2A87F2B120A347874A60778781C
:10001600E664087050FD7F29120A29E4FD7F02126A
:100026000A297874E630E42C7FB2120A34EF642190
:1000360070227FBF120A34BF351A7FBA120A348F74
:1000460008E508D39400400CE50894045006787936
:100056007610800478797611E4FD7F2B120A29E464
:10006600FD7F1C80657F29120A347873A6077F02FC
:10007600120A347876A607E4FD7F29120A29E4FDE0
:100086007F02120A297FBA120A34EF30E53F7F2B2E
:10009600120A34EF54EFFD7F2B120A29E4FD7FBAD2
:1000A600120A29E4FD7FBC120A29E4F56E7D017F60
:1000B60008120A297F057E007D007C001207FDE4F8
:1000C600FD7F08120A29E4FD7F33020A29AF72AECA
:1000D60071AD70AC6FAB65AA64A963A862C3120266
:1000E6003240307D017FBC120A297F02120A347821
:1000F60077EFF654FEF6FD7F02120A297F29120ACF
:10010600347877EFF654FBF64410FD7F29120A295E
:10011600D2A8221203147873E6FD7F29120A2978E1
:1001260076E6FD7F02120A297F0A7E007D007C00AA
:050136001207FDD2A834
:01013B0022A1
:10051D00E4F565F564F563F562756E017F1B120AEE
:10052D0034EF4408FD7F1B120A29AF72AE71AD7016
:10053D00AC6FAB65AA64A963A862C312023250679F
:10054D00120314E4FD7FBA120A297D487F17120A9F
:10055D00297D017F33120A297F29120A347874EF1D
:10056D00F64404FD7F29120A297F02120A34787499
:10057D00EFF64401FD7F02120A297F89120A3478B1
:10058D0074EFF6440CFD7F89120A29787476087F82
:10059D0085120A34EF54F3FF7877F67874E64FFD41
:0805AD007F85120A29D2A82261
:10096C008F0F7875A60FC3740F950F540F25E025C4
:10097C00E0F50F7F8E120A34EF54C37874F6450FEE
:0D098C00FD7F8E120A297D787F87020A29DF
:10031400E5692565F512E5683564F511E56735632A
:10032400F510E5663562F50FD297C293C2977F0B3D
:10033400120A0EE512FFE511FEE510FDE4FC78104B
:10034400120243120A0EE512FFE511FEE4FDFC78E9
:1003540008120243120A0EE512FFE4120A0E7FFF8E
:10036400120A0E80507877E620E355AF72AE71AD75
:1003740070AC6FAB65AA64A963A862C31202325061
:100384003FE4F513FFC293E51325E0F513D293A2DE
:1003940096E43342130FBF08ECAD137F01120A2910
:1003A400E5652401F565E43564F564E43563F563D6
:1003B400E43562F5627F06120A347877A60780A5D1
:0403C400D297C29377
:0103C8002212
:10099900E4F55BF55A7FB2120A34BF2105755B0194
:1009A90080147F0A7E007D007C001207FD055AE550
:0809B9005AC3940A40DFAF5B52
:0109C1002213
:030A450002079213
:1006B7007D437F35120A297D097F1C120A297D2077
:1006C7007FBD120A297D017F08120A297F017E005A
:1006D7007D007C001207FDE4FD7F08120A297F01D7
:1006E7007E007D007C001207FD120999EF7002FF62
:1006F700227DFF7FB2120A297D067F37120A297FE2
:10070700057E007D007C001207FD7D0B7F1C120A11
:10071700297D107F29120A29E4FD7FBD120A29D2FB
:04072700A87F012284
:1003C90078147C007D007BFF7A0879417E007F41AB
:1003D90012020C78557C007D007BFF7A0879827EB9
:1003E900007F0512020C751201E4F511120999EF4B
:1003F9007004F512807574552511F8E6FD7FC11258
:100409000A29E4FD7FC3120A297D047F08120A29FB
:100419007F017E007D007C001207FDE4FD7F08124C
:100429000A297F017E007D007C001207FDE4F51397
:10043900E51175F00DA424142513F8E6FD600E7F6F
:1004490005120A290513E513C3941440E3AD137F7C
:10045900B9120A297DFF7FB2120A297D047F37125A
:0D0469000A290511E511C394054081AF1269
:010476002263
:060A3F007FC5120A3422FB
:0B0A2900908100EFF0908000EDF022C3
:0B0A3400908100EFF0908000E0FF22B6
:030000000205B541
:0C05B500787FE4F6D8FD75817A0205FC21
:10013C00E709F608DFFA8046E709F208DFFA803EA5
:10014C0088828C83E709F0A3DFFA8032E309F60892
:10015C00DFFA8078E309F208DFFA807088828C83FA
:10016C00E309F0A3DFFA806489828A83E0A3F608AE
:10017C00DFFA805889828A83E0A3F208DFFA804C88
:10018C0080D280FA80C680D4806980F2803380105F
:10019C0080A680EA809A80A880DA80E280CA8033C8
:1001AC0089828A83ECFAE493A3C8C582C8CCC58340
:1001BC00CCF0A3C8C582C8CCC583CCDFE9DEE78010
:1001CC000D89828A83E493A3F608DFF9ECFAA9F08F
:1001DC00EDFB2289828A83ECFAE0A3C8C582C8CCE5
:1001EC00C583CCF0A3C8C582C8CCC583CCDFEADEFE
:1001FC00E880DB89828A83E493A3F208DFF980CC60
:10020C0088F0EF60010E4E60C388F0ED2402B40458
:10021C000050B9F582EB2402B4040050AF232345FF
:06022C00822390018C7397
:10023200EB9FF5F0EA9E42F0E99D42F0E89C45F022
:010242002299
:10024300E8600FECC313FCED13FDEE13FEEF13FF99
:03025300D8F122BD
:1005C10002072BE493A3F8E493A34003F68001F21E
:1005D10008DFF48029E493A3F85407240CC8C3333B
:1005E100C4540F4420C8834004F456800146F6DF0A
:1005F100E4800B01020408102040809009E9E47EA8
:10060100019360BCA3FF543F30E509541FFEE493FE
:10061100A360010ECF54C025E060A840B8E493A3C5
:10062100FAE493A3F8E493A3C8C582C8CAC583CAF0
:10063100F0A3C8C582C8CAC583CADFE9DEE780BEA8
:010A0D0000E8
:00000001FF
