:0300000002000EED
:0C000E00787FE4F6D8FD75810C020055E7
:03000300010800F1
:0E010500E4FEEEC39F50077D0DDDFE0E80F47C
:0101130022C9
:1000F10020B5107F1412010520B508758C06758A8C
:0401010006D28C2274
:03000B0002009A56
:10009A00C0E0C0D0050AE50A70020509B4A02BE544
:1000AA0009B40F26750900750A00050CE50C7002E3
:1000BA00050B64B4450B7002D2B3E50C64B6450B6C
:0F00CA007008F50BF50CC2B3C28CD0D0D0E03269
:1000D900758902D2A9D2AFE4F50BF50CC28C758CE7
:0800E90006758A06D28C80FE28
:10001A000200D9E493A3F8E493A34003F68001F223
:10002A0008DFF48029E493A3F85407240CC8C333E7
:10003A00C4540F4420C8834004F456800146F6DFB6
:10004A00E4800B0102040810204080900003E47E43
:10005A00019360BCA3FF543F30E509541FFEE493AB
:10006A00A360010ECF54C025E060A840B8E493A372
:10007A00FAE493A3F8E493A3C8C582C8CAC583CA9D
:10008A00F0A3C8C582C8CAC583CADFE9DEE780BE55
:0100060000F9
:00000001FF
