:0300000002000EED
:0C000E00787FE4F6D8FD75810B020055E8
:03000300010800F1
:03000B0002009A56
:10009A00C0E0C0D0050AE50A70020509B49017E568
:1000AA0009B40112750900750A00050BE50BB40ABB
:0B00BA0005750B00B2B3D0D0D0E032CF
:1000C500758902758C06758A06D28CD2A9D2AFE4E1
:0400D500F50B80FEA9
:10001A000200C5E493A3F8E493A34003F68001F237
:10002A0008DFF48029E493A3F85407240CC8C333E7
:10003A00C4540F4420C8834004F456800146F6DFB6
:10004A00E4800B0102040810204080900003E47E43
:10005A00019360BCA3FF543F30E509541FFEE493AB
:10006A00A360010ECF54C025E060A840B8E493A372
:10007A00FAE493A3F8E493A3C8C582C8CAC583CA9D
:10008A00F0A3C8C582C8CAC583CADFE9DEE780BE55
:0100060000F9
:00000001FF
