:0200000019C025
:14001A00380C0106494E5055543A20007777772E736C2E639A
:14002E006F6D2E636E00CFE5D2E0CDBFDEBFC051D0400AEA3F
:1400420008830024E6E7F0E010E0E637F10711F00192FBCFFB
:140056000083EEE1F0E0A0E6B0E010E0E433F10721F0C895F1
:14006A0031960D92F9CF01D0FFCF88D1222701E050D008E624
:14007E0010E0BAD121E000274AD000E610E0B4D127C0F7D0A8
:14009200202E312E422D403138F44A3010F4405D01C0495C20
:1400A600042F1CD0842F80788038B1F4662707C022E701E0E1
:1400BA00FDD004EF11E048D063956730B8F3662707C02CE6C9
:1400CE0001E0F2D004EF11E03DD063956730B8F3D8CF08950C
:1400E2009DD1402F0027112738D1202E312E2227332700680D
:1400F60011D121E030E0042F11270CD1002711272AD1202E13
:14010A00312E2227332701501040006801D185D1089597D1A9
:14011E00422F602F413019F4462F405402C0462F405822272E
:140132003327042F1127F0D091D1089501E010E002C00F5F34
:140146001F4F0637E4E01E07D0F308957CD1602F712F4427CA
:14015A00552703C0EFDF4F5F5F4F46175707D0F379D10895C3
:14016E00222427BA28BA8FEF81BB82BB08956DD1AA24BB24F5
:140182008FE084BB8FEF85BB81B38F7781BB44276FC001E00C
:14019600142F68D1202E209425BACEDF83B3807FC82E879900
:1401AA0002C08160C82E8C2D803F09F45AC005E010E0CADF9B
:1401BE0083B3807FC82E879906C08160C82E81E090E0A82E9E
:1401D200B92E8C2D803F09F448C0807FC82E6C2D7727603BEE
:1401E600E0E07E07F1F080EB90E0861797072CF06037E0E056
:1401FA007E0771F029C0603DE0E07E07B9F0603DE0E07E07B5
:14020E000CF1603EE0E07E07B1F01CC0242E220C220C8FE062
:14022200C82EC21817C0242E220C220C8EE0C82EC21810C065
:14023600242E220C220C8DE0C82EC21809C0242E220C220C52
:14024A008CE0C82EC21802C08FE7C82E81E090E0A816B906E8
:14025E0019F48C2D8068C82E0C2D112708C08FEF85BB439519
:14027200443008F48ECF0FE710E0F4D00895E5D07CDF202E06
:14028600312E422D4F3731F076DF202E312E622D4617D1F33D
:14029A00042F1127DFD008950027112702C00F5F1F4F0E315D
:1402AE00E0E01E07D0F30895CDD0422FA02E61E055274235E7
:1402C200E0E05E07C9F082E590E0841795072CF04C34E0E0E0
:1402D6005E07A1F01DC04C36E0E05E0769F04C36E0E05E079A
:1402EA00ACF04237E0E05E0709F010C04CE10CC04CE10AC00D
:1402FE0048E108C048E106C0639522273327042F112704D032
:14031200A616C0F7A5D0089598D0622F402F222427BA28BAE1
:140326009398949A959ABADF86B380788038E1F3959866232F
:14033A0011F4939801C0939A94988FEF87BB48BB959AAADFEA
:14034E009598A8DF222427BA28BA82D0089560D0402F22240A
:1403620027BA28BA442311F4939801C0939A949A959A96DF6D
:1403760046B34F77959892DF042F112750D008954BD0F2DE03
:14038A0044270FC0222733278AE190E0242E3324280E391E71
:14039E00E22DF32DC895002D1127B8DF4395443078F339D003
:1403B200089534D0402F4A30B1F400271127CDDF202E312E50
:1403C6008FE090E08215930534F42227332702E010E0A0DFF9
:1403DA000BC02227332700EC10E09ADF05C021E030E0042F43
:1403EE00112794DF18D0089513D0402F512F09C0242E352E7B
:140402004F5F5F4FE22DF32D00811127D2DFE42FF52F20801A
:14041600222091F704D008955A934A930895E1E049915991AB
:14042A00E0FD089569917991E1FD0895A990B990E2FD0895C7
:14043E00C990D990E3FD0895E990F99008957A936A93E6CF0D
:14045200BA92AA92FACFDA92CA92FACFE2E0E2CFE4E0E0CFCE
:10046600E8E0DECF112319F0000F1A95FBCF0895AF
:00000001FF
