:0200000017C027
:14001A003F065B4F666D7D077F6F777C395E79713F3F3F3F2E
:14002E003F3FCFE5D2E0CDBFDEBFC051D0400AEA08830024ED
:14004200E6E6F0E010E0E636F10711F00192FBCF0083EAE25D
:14005600F0E0A0E6B0E010E0E033F10721F0C89531960D92E1
:14006A00F9CF28D0FFCF8FE084BB8FE381BB8FEF87BB82BB9B
:14007E0088BB85BB08950AD1442716C080E690E0E42FFF2723
:14009200E80FF91F208028BA01E0142F21D1202E209422BAD5
:1400A6005FD001E0142F1AD122B2202A22BA4395463040F38D
:1400BA00F2D008956627222425BED5DF4DC066D0202E312E79
:1400CE00422D4F3709F445C05FD0202E312EA22CD2DF4A156D
:1400E200C9F3842F80788038B1F4662711C080E690E0E62FFD
:1400F600FF27E80FF91F8AE190E0FA93EA93E82FF92FC89540
:14010A00E991F99100826395663068F324C0662715C0262ED8
:14011E003324E4E0F0E0E219F30980E690E0E80FF91F208066
:14013200362E4424E5E0F0E0E319F409E80FF91F20826395B6
:14014600653048F38AE190E0E42FFF27EF77F070E80FF91FEC
:14015A00C8950092600091DFB2CF089501E010E002C00F5FB3
:14016E001F4F0637E4E01E07D0F30895A6D0602F712F442779
:14018200552703C0EFDF4F5F5F4F46175707D0F3A3D0089572
:140196009ED0AA24BB248FE084BB8FEF85BB81B38F7781BB58
:1401AA0044276FC001E0142F97D0202E209425BAD5DF83B351
:1401BE00807FC82E879902C08160C82E8C2D803F09F45AC0F0
:1401D20005E010E0D1DF83B3807FC82E879906C08160C82EAC
:1401E60081E090E0A82EB92E8C2D803F09F448C0807FC82E05
:1401FA006C2D7727603BE0E07E07F1F080EB90E086179707E3
:14020E002CF06037E0E07E0771F029C0603DE0E07E07B9F00F
:14022200603DE0E07E070CF1603EE0E07E07B1F01CC0242E37
:14023600220C220C8FE0C82EC21817C0242E220C220C8EE026
:14024A00C82EC21810C0242E220C220C8DE0C82EC21809C04C
:14025E00242E220C220C8CE0C82EC21802C08FE7C82E81E013
:1402720090E0A816B90619F48C2D8068C82E0C2D112708C0AE
:140286008FEF85BB4395443008F48ECF0FE710E023D008958B
:14029A005A934A930895E1E049915991E0FD089569917991E6
:1402AE00E1FD0895A990B990E2FD0895C990D990E3FD089584
:1402C200E990F99008957A936A93E6CFBA92AA92FACFDA920D
:1402D600CA92FACFE2E0E2CFE8E0E0CF112319F0000F1A950A
:0402EA00FBCF0895A9
:00000001FF
