:0200000081C0BD
:02000800BFC077
:02000E00A8C088
:14001A00B8015802EE01C8000B025802B801C8000B02900182
:14002E00EE01C800B801C800EE0190014A019001EE015802E1
:140042000B02C80042025802EE01C800420290010B02C800D6
:14005600EE01C800B801200393029001700390011003900135
:14006A007003C8001003C800BA0290019302C8004202C800B6
:14007E0093029001B80190010000C800BA0290014202C800DD
:14009200930258020B02C800EE01C8004A01C8000B02C800F7
:1400A600EE01C800B8012003930290017003900110039001E5
:1400BA007003C8001003C800BA0290019302C8004202C80066
:1400CE0093029001B80190010000C800BA0290014202C8008D
:1400E200930258020B02C800EE01C8004A01C8000B02C800A7
:1400F600EE01C800B8012003000000000000CFE5D2E0CDBF71
:14010A00DEBFC051D0400AEA08830024E2E6F0E010E0E236E0
:14011E00F10711F00192FBCF0083E2E0F1E0A0E6B0E011E05A
:14013200E430F10721F0C89531960D92F9CF78D0FFCF2224B5
:1401460025BE81E084BB2FBC89E08EBD83E083BF89E182BF33
:14015A0082E489BF08958A939A938FB78A9380916000909107
:14016E0061000196909361008093600089E182BF89918FBF7B
:140182009991899118952A928A932FB62A9281E025B2282678
:1401960025BA29902FBE89912990189590D0A22EB32EC02E51
:1401AA00D12E7894222433243092610020926000CC2011F473
:1401BE00DD2059F12C2C3D2C4424552440E059E06DE370E04B
:1401D2005A924A923A922A92042F152F262F372FBFD0C02E1A
:1401E600D12ED0924B00C0924A002224332430924D0020925F
:1401FA004C0089B7806489BF20906000309061002A143B048B
:14020E00C8F389B78F7B89BF0AC089B78F7B89BF2090600023
:14022200309061002A143B04C8F3F8944DD00895442787DF58
:1402360027C0242E3324220C331C220C331C8CE190E0022D1E
:14024A00132D080F191F3ED0202F312F8AE190E0022D132D0A
:14025E00080F191F35D09EDF43958CE190E0042F1127000F8C
:14027200111F000F111F080F191F28D000300107D1F6442758
:14028600F0CF08955A934A930895E1E049915991E0FD0895A2
:14029A0069917991E1FD0895A990B990E2FD0895C990D99011
:1402AE00E3FD0895E990F99008957A936A93E6CFBA92AA92D9
:1402C200FACFDA92CA92FACFE8E0E2CFEA93FA930A92E02FA0
:1402D600F12FC895002D3196C895102D0990F991E9910895CF
:1402EA0000951095209530950F5F1F4F2F4F3F4F08958A92AB
:1402FE009A92AA92BA92EA938A939A93AA93BA9389859A85BA
:14031200AB85BC850895B991A99199918991E991B990A99005
:140326009990899024960895EE27E02BE12BE22BE32B089546
:14033A00EE27E82BE92BEA2BEB2B089580959095A095B095F7
:14034E008F5F9F4FAF4FBF4F0895082D192D2A2D3B2D08953F
:14036200CCDF0CD0D8CFC9DF14D0D5CFC6DF06D0F2DFD1CF3D
:14037600C2DF0DD0EEDFCDCF33232AF0BB233AF4DFDF05D07D
:14038A00AFCFAEDFBB23DAF7D9DFD2DFD9F088249924AA243C
:14039E00BB24C6DFA9F0E0E2000F111F221F331F881C991C41
:1403B200AA1CBB1C88169906AA06BB0628F0881A990AAA0ADB
:0A03C600BB0A0395EA9561F708955C
:00000001FF
