:030000000200E318
:0C00E300787FE4F6D8FD75810902000367
:10000300C2B37F0A1200C2E4FFFE1200ACE4F5089B
:10001300F509AF09AE0812007BEFF470570509E547
:100023000970020508C3E508940240E67F0A12003E
:10003300C2E4F508F509AD09AF09AE08120094054D
:1000430009E50970020508C3E508940240E87F0A40
:100053001200C2E4F508F509AF09AE0812007BEF00
:10006300B509110509E50970020508C3E5089402FD
:0800730040E680FED2B380FEDE
:1000C200AE071FEE600DE4FCFD0DED70010C4C60FF
:0300D200EF80F6C6
:0100D5002208
:0D00D600E4F5C7F5C5F5C675C380F5C42275
:10007B0075C78375C5018FC48EC375C65A75C6A562
:08008B00000000AFC21200D614
:01009300224A
:1000940075C78375C5028FC48EC38DC275C65A7564
:0800A400C6A50000000200D611
:1000AC0075C78375C5038FC48EC375C65A75C6A52F
:0600BC000000000200D666
:00000001FF
