:030B9500013D001F
:10089F007F03120D6D120CE4120E0B120C68E4782C
:1008AF003DF6FF1207B8E52F70FC783DE61460F6B1
:1008BF0024F1602124DF60EE243170357F04120DA6
:1008CF006D783D7601120C25EF70DB783D7631C2E5
:1008DF00B4C2B580D17F02120D6D120DF0783AEFD0
:1008EF00F6120A3A783AE6FF1207B8E4783DF68036
:0C08FF00B57F01120D6DE4783DF680AA73
:100CE40043920143B20875BBFFC2B4C2B57580FF1D
:100CF4007590FF75A0FF75B0F775C03FD290E4F50D
:100D0400B8F5B7D2B8D2B9D2BC43B701C2A8C2AA07
:030D1400D2AF2239
:080974007F607EEA7D007C003B
:08097C008F1E8E1D8D1C8C1BCB
:10098400E4F522F521F520F51FF583F582E4F5223F
:10099400F521F520F51FAF1EAE1DAD1CAC1BAB221F
:1009A400AA21A920A81FC312052B501D000000E591
:1009B400222401FFE43521FEE43520FDE4351F8FB8
:1009C400228E218D20F51F80CDA3E5826405458309
:0209D40070BBF6
:0109D60022FE
:080A9A008F0C8E0B8D0A8C09F4
:100AA200E4F510F50FF50EF50DF583F582E4F5107A
:100AB200F50FF50EF50DAF0CAE0BAD0AAC09AB1090
:100AC200AA0FA90EA80DC312052B501D000000E5A8
:100AD200102401FFE4350FFEE4350EFDE4350D8FE1
:100AE200108E0F8D0EF50D80CDA3E5826405458332
:020AF20070BBD7
:010AF40022DF
:020D6D008F11E4
:100D6F00E4F512E512C39511501AC2B4C2B57F1043
:100D7F007E27120978D2B4D2B57F107E2712097858
:040D8F00051280DFEA
:010D9300223D
:100DD500E4FEC297EF30E704D2928002C292D2932A
:0A0DE500EF25E0FFC2930EBE08EAFE
:010DEF0022E1
:100C2500E4F511F512F511120E387F647E001209F4
:100C350078120D17EF7002800D7F0A7E0012097879
:100C4500120738EF700C120C687F647E0012097869
:100C5500800575120180090511E511C3940540C78A
:020C6500AF12CC
:010C6700226A
:03000300020CA943
:100CA900C0E0C0F0C083C082C0D075D000C000C011
:100CB90001C002C003C004C005C006C00712000677
:100CC900D007D006D005D004D003D002D001D0007F
:0B0CD900D0D0D082D083D0F0D0E03229
:100E0B00759850759CFA758E15758921C28CC28E9A
:050E1B00D2ACD2AF22B1
:0E0E2000C2ACC2998F993099FDC299D2AC2212
:0A0E2E007F0D120E207F0A020E2035
:100D94008B1B8A1C891DAB1BAA1CA91D1204E560B0
:100DA40012781BE475F00112054F1204E5FF120ED0
:040DB4002080E32296
:080B4700FC12053C783BEFF6BF
:020B4F00AE07EF
:100B5100EE54F0783CF6E6C4540FF6D394094006FF
:100B6100E62437F68006783CE62430F6783CE6FF4A
:100B7100120E20EE540FF6D394094006E62437F600
:100B81008006783CE62430F6783CE6FF120E207FA2
:040B910020020E2010
:080BDE008F158E148D138C128B
:100BE6007F5B120E20AF15AE14AD13AC127818123F
:100BF6000B48E4FFFEE513FDE47810120B47E4FF13
:100C0600E514FEE4FD7808120B47E515FF783BEF87
:0F0C1600F6FF120B4F7F5D120E207F20020E2083
:100A3A00EF12055F0A5A000A62010A6A020A720381
:100A4A000A7A040A82050A8A060A920700000A99A3
:100A5A00C2C2120974D2C222C2B4120974D2B42216
:100A6A00C2C3120974D2C322C2B5120974D2B52202
:100A7A00C2C4120974D2C422C2C5120974D2C522D0
:100A8A00C2C1120974D2C122C2C0120974D2C022D0
:10061D004C445F41737252756E28292E00202020A4
:10062D002000626569206A696E67007368616E6794
:10063D0020686169007469616E206A696E00636883
:10064D006F6E672071696E67006775616E67207ADE
:10065D00686F750068616E67207A686F75006368F2
:10066D00656E67206475006E616E206A696E670045
:10067D00000A4C445F417372416464466978656455
:10068D0028292E0041535220526573756C74203DFC
:0F069D002000506C6179536F756E64202D200022
:100B98006020000000000F780F790EA01E1A0F3099
:100BA8002D4B0EE83C340E104A450E1058560D38A1
:100BB800658F0CF0042700000000043000000000DE
:100BC800042300000000042B00000000013900018C
:050BD8002F0001360FA3
:100C6800D2B37F017E007D007C0012097CC2B37F75
:100C7800017E007D007C0012097CD2B37F017E00DA
:100C88007D007C0012097CC2A67F017E007D007C6D
:100C98000012097CD2A67F017E007D007C0002093B
:010CA8007CCF
:10020400E4F52F7F0612082E7D357F1712090B7F28
:100214000A7E007D007C0012097C7F0612082E7D78
:10022400037F8912090B7F057E007D007C00120983
:100234007C7D437FCF12090B7F057E007D007C000F
:1002440012097C7D027FCB12090B7D0A7F111209F2
:100254000B7839E6B44019E4FD7F1E12090B7D0FBB
:100264007F1912090B7D187F1B12090B7D2B801738
:10027400E4FD7F1E12090B7D3F7F1912090B7D4897
:100284007F1B12090B7D1F7F1D12090B7F0A7E0045
:100294007D007C0012097C7D047FCD12090B7D4C0E
:1002A4007F1712090B7F057E007D007C0012097CFC
:1002B400E4FD7FB912090B7D4F7FCF12090B7DFF3F
:0502C4007F6F02090B31
:10043F00783976401202047D027FBD12090B7D4888
:10044F007F1712090B7F0A7E007D007C0012097C4A
:10045F007D527F8512090BE4FD7F8F12090BE4FD9E
:10046F007F8112090BE4FD7F8312090B7DFF7F8EC5
:10047F0012090B7DFF7F8D12090B7F017E007D001E
:10048F007C0012097C7DFF7F8712090B7DFF7F891E
:10049F0012090B7F017E007D007C0012097CE4FDB8
:1004AF007F2212090BE4FD7F2312090B7DEF7F20C2
:1004BF0012090B7D077F2112090B7D777F2412090B
:1004CF000B7D037F2512090B7DBB7F2612090B7D48
:0604DF00017F2702090B5A
:1009D70078397608120204E4FD7FBD12090B7D48C1
:1009E7007F1712090B7F0A7E007D007C0012097CAD
:1009F7007D807F3C12090B7D077F3E12090B7DFF2F
:100A07007F3812090B7D077F3A12090BE4FD7F40FF
:100A170012090B7D087F4212090BE4FD7F4412097E
:100A27000B7D087F4612090B7F017E007D007C004D
:030A370002097C35
:10000600E4F508C2A87F2B12082E7835A6077839A2
:10001600E664087051FD7F2912090BE4FD7F021288
:10002600090B7835E630E42D7FB212082EEF6421F5
:1000360070237FBF12082EBF351B7FBA12082E8F82
:1000460008E508D39400400DE508D39404500678DB
:100056003D76108004783D7611E4FD7F2B12090B66
:10006600E4FD7F1C805E7F2912082E7834A6077F68
:100076000212082E7837A607E4FD7F2912090BE441
:10008600FD7F0212090B7FBA12082EEF30E538E425
:10009600FD7F2B12090BE4FD7FBA12090BE4FD7FED
:1000A600BC12090BE4F52F7D017F0812090B7F05B1
:1000B6007E007D007C00120A9AE4FD7F0812090B7F
:1000C600E4FD7F3302090BAF33AE32AD31AC30AB5A
:1000D60026AA25A924A823C312052B40117D017F3A
:1000E600BC12090B7D107F2912090BD2A82212031C
:1000F600847834E6FD7F2912090B7837E6FD7F0206
:1001060012090B7F0A7E007D007C00120A9AD2A893
:0101160022C6
:100AF500E4F526F525F524F523752F01AF33AE3240
:100B0500AD31AC30AB26AA25A924A823C312052BE9
:100B1500502F1202C9E4FD7FBA12090B7D487F17D9
:100B250012090B7D017F3312090B7D047F29120900
:100B35000B7D017F0212090B7D5A7F8512090BD2AD
:020B4500A822E4
:100DB8007836A607C3740F9F540F25E025E044C377
:0D0DC800FD7F8E12090B7D787F8702090BDD
:1002C900E52A2526FFE5293525FEE5283524FDE51E
:1002D9002735238F158E148D13F512D297C293C229
:1002E900977F0B120DD5E515FFE514FEE513FDE427
:1002F900FC781012053C120DD5E515FFE514FEE456
:10030900FDFC780812053C120DD5E515FFE4120D28
:10031900D57FFF120DD580537838E620E358AF33E7
:10032900AE32AD31AC30AB26AA25A924A823C3121D
:10033900052B5042E4F516FFC293E51625E0F516A4
:10034900D293A296E43342160FBF08ECAD167F0193
:1003590012090BE5262401FFE43525FEE43524FDC9
:10036900E435238F268E258D24F5237F0612082E4A
:0A0379007838A60780A2D297C2933D
:010383002257
:10038400E52A2526FFE5293525FEE5283524FDE562
:100394002735238F0C8E0B8D0AF509D297C293C291
:1003A400977F0B120DD5E50CFFE50BFEE50AFDE486
:1003B400FC781012053C120DD5E50CFFE50BFEE4AC
:1003C400FDFC780812053C120DD5E50CFFE4120D76
:1003D400D57FFF120DD580537838E620E358AF332C
:1003E400AE32AD31AC30AB26AA25A924A823C31262
:1003F400052B5042E4F50DFFC293E50D25E0F50D04
:10040400D293A296E433420D0FBF08ECAD0D7F01E9
:1004140012090BE5262401FFE43525FEE43524FD0D
:10042400E435238F268E258D24F5237F0612082E8E
:0A0434007838A60780A2D297C29381
:01043E00229B
:100D4400E4F516F5157FB212082EBF2105751601BC
:100D540080147F0A7E007D007C0012097C0515E565
:080D640015C3940A40DFAF162D
:010D6C002264
:030E38000209D7D5
:100738007BFF7A06791D120D94120E2E7D4C7F35A3
:1007480012090B7D097F1C12090B7D207FBD120940
:100758000B7D017F0812090B7F017E007D007C0064
:1007680012097CE4FD7F0812090B7F017E007D00E1
:100778007C0012097C120D44EF7002FF227DFF7F7E
:10078800B212090B7D067F3712090B7F057E007DAB
:10079800007C0012097C7D0B7F1C12090B7D107FE9
:1007A8002912090BE4FD7FBD12090BD2A87F012293
:080585008B168A1789188D19E5
:10058D00AF19120B4F7BFF7A06792A120D94AB1619
:10059D00AA17A918120D94120E2EAB16AA17A91888
:1005AD001204E5606AAD197FC112090BE4FD7FC32A
:1005BD0012090B7D047F0812090B7F017E007D005F
:1005CD007C0012097CE4FD7F0812090B7F017E007F
:1005DD007D007C0012097CE4F51AAB16AA17A91848
:1005ED00851A827583001204FEFD600E7F051209C7
:1005FD000B051AE51AC3943240E0AD1A7FB9120902
:0F060D000B7DFF7FB212090B7D047F3712090BA3
:01061C0022BB
:100117008F15E51512055F01B80001C00101C8027E
:1001270001D00301D80401E00501E80601F0070149
:10013700F80801F80901F80A01F80B01F80C01F8B1
:100147000D01F80E01F80F01F81001F81101F8126E
:1001570001F81301F81401F81501F81601F8170151
:10016700F81801F81901F81A01F81B01F81C01F831
:100177001D01F81E01F81F01F82001F82101F822DE
:1001870001F82301F82401F82501F82601F82701D1
:10019700F82801F82901F82A01F82B01F82C01F8B1
:1001A7002D01F82E01F82F01F83001F83100000277
:1001B700037BFF7A06792F803E7BFF7A06793880AA
:1001C700367BFF7A067942802E7BFF7A06794B8051
:1001D700267BFF7A067956801E7BFF7A0679618037
:1001E700167BFF7A06796B800E7BFF7A067974801F
:0D01F700067BFF7A06797DAD151205852285
:100D17007BFF7A06797E120D94120E2E751401E46C
:100D2700F513120D44EF7004F514800EAF13120182
:0C0D3700170513E513C3940840E8AF143F
:010D4300228D
:100DF0007FC512082E8F117BFF7A067991120D9410
:0A0E0000AF11120B4F120E2EAF11AE
:010E0A0022C5
:1007B8008F11E511C39408506CE51125E025E0245C
:1007C80000F582E43400F583E0FEA3E0FFE48F2A1D
:1007D8008E29F528F527E51125E025E02402F58284
:1007E800E43400F583E0FEA3E0FFE48F338E32F5B6
:1007F80031F5307BFF7A06799F120D94AF11120BF9
:100808004FAF2AAE29AD28AC27120BDEAF33AE327C
:10081800AD31AC30120BDE120E2E12043F7F0712E0
:060828000DB8120AF522D2
:10090B00E4FE7C04C2B6C2A6000000EC30E704D2C1
:10091B00808002C280000000C282EC25E0FC000057
:10092B0000D2820EBE08E4E4FEEF30E704D28080F2
:10093B0002C280000000C282EF25E0FF000000D25F
:10094B00820EBE08E4E4FEED30E704D2808002C2E2
:10095B0080000000C282ED25E0FD000000D2820E77
:08096B00BE08E4000000D2A662
:010973002261
:10082E00E4FEFDFC7B05C2B6C2A6000000EB30E77D
:10083E0004D2808002C280000000C282EB25E0FB61
:10084E00000000D2820EBE08E4E4FEEF30E704D2D0
:10085E00808002C280000000C282EF25E0FF00000F
:10086E0000D2820EBE08E4000000E4FEED25E0FD9D
:10087E00A281E433FC000000C282BC0103430501E7
:10088E00000000D2820EBE08E3000000D2A6AF0523
:01089E002237
:030000000206AC49
:0C06AC00787FE4F6D8FD75813D0206F36E
:1004E500BB010689828A83E0225002E722BBFE0215
:0904F500E32289828A83E4932248
:1004FE00BB010CE58229F582E5833AF583E02250B3
:10050E0006E92582F8E622BBFE06E92582F8E222FC
:0D051E00E58229F582E5833AF583E4932216
:10052B00EB9FF5F0EA9E42F0E99D42F0E89C45F026
:01053B00229D
:10053C00E8600FECC313FCED13FDEE13FEEF13FF9D
:03054C00D8F122C1
:10054F00FAE6FB0808E6F925F0F618E6CA3AF622AD
:10055F00D083D082F8E4937012740193700DA3A32B
:10056F0093F8740193F5828883E47374029368603F
:06057F00EFA3A3A380DF3F
:1006B80002089FE493A3F8E493A34003F68001F2B1
:1006C80008DFF48029E493A3F85407240CC8C33343
:1006D800C4540F4420C8834004F456800146F6DF12
:1006E800E4800B0102040810204080900B95E47E02
:1006F800019360BCA3FF543F30E509541FFEE49307
:10070800A360010ECF54C025E060A840B8E493A3CD
:10071800FAE493A3F8E493A3C8C582C8CAC583CAF8
:10072800F0A3C8C582C8CAC583CADFE9DEE780BEB0
:010BDD000017
:00000001FF
