:030000000200F704
:0C00F700787FE4F6D8FD75812902008CAA
:10008C00E4F589758E80758A80758CFED28CD2A928
:10009C00D2B9D2AF1200E0E50945086011E4F508C9
:1000AC00F509AF280528EF540F2418F8A60EE50B18
:1000BC00450A60E3E529652860DDE4F50AF50BAF38
:1000CC00290529EF540F2418F8E6F512751300755D
:0400DC00140180C3C8
:03000B0002000EE2
:10000E00C0E0C0D0E510450F60281516E51670311A
:10001E00751603D5110E850C0EF50FF510F5087536
:10002E000901801DE50CC313F50C30B014430C8090
:10003E00800F20B00C750F00751001751604751128
:10004E00091517E5177032751703E5144513602966
:10005E00E515700AC2B185120D751509801BE50DE7
:10006E00C313F50DD51510D2B175130075140075A7
:0E007E000A00750B01800292B1D0D0D0E032A2
:1000E000E4F513F514F50FF510F50A750B01F50895
:0700F000F509F517F51622D2
:00000001FF
