:0300000002012CCE
:0C012C00787FE4F6D8FD75812B02008C72
:0E011D00E4FEEEC39F50077D0DDDFE0E80F464
:01012B0022B1
:10008C00E4F589758E80758A80758CFED28CD2A928
:10009C00D2B9D2AF120106E5094508600AE4F508A9
:1000AC00F5090529850E18E50B450A60EAE52A6570
:1000BC002960E4E4F50AF50BE51824BE600E146023
:0800CC000F14601F24037028CB
:1000D400D2B38019C2B3801530B30375124120B373
:1000E40003751242AF2B12011D800AB2B3AF2B125B
:0800F400011D8518127518EEBC
:0A00FC00052A751300751401809D9C
:03000B0002000EE2
:10000E00C0E0C0D0E510450F60281516E51670311A
:10001E00751603D5110E850C0EF50FF510F5087536
:10002E000901801DE50CC313F50C30B014430C8090
:10003E00800F20B00C750F00751001751604751128
:10004E00091517E5177032751703E5144513602966
:10005E00E515700AC2B185120D751509801BE50DE7
:10006E00C313F50DD51510D2B175130075140075A7
:0E007E000A00750B01800292B1D0D0D0E032A2
:10010600E4F513F514F50FF510F50A750B01F5086E
:07011600F509F517F51622AB
:00000001FF
