:0200000053C0EB
:02000C006DC0C5
:14001A00404346494C4F5255585B5E606366686A6D6F7173B2
:14002E00757678797B7C7D7E7E7F7F7F7F7F7F7F7E7E7D7C04
:140042007B7978767573716F6D6A686663605E5B5855524F91
:140056004C494643403C393633302D2A2724211F1C191715E7
:14006A0012100E0C0A0907060403020101000000000000001B
:14007E0001010203040607090A0C0E10121517191C1F212442
:14009200272A2D303336393C6B60574F3D38322E0000000088
:1400A6000000CFE5D2E0CDBFDEBFC051D0400AEA08830024F3
:1400BA00E6E6F0E010E0EA36F10711F00192FBCF0083E2EAE1
:1400CE00F0E0A0E6B0E010E0E83AF10721F0C89531960D925A
:1400E200F9CF9DD0FFCF0A922A923A924A925A920A931A93D1
:1400F6002A933A938A939A93EA93FA930FB60A9220906000A7
:14010A0033245090630040906200420C531C50926300409241
:14011E0062002090610033245090650040906400420C531CCD
:14013200509265004092640023E030E0109163000091620032
:140146000C5F1F4FACD0802F912F8F779070282E332430926C
:14015A0069002092680023E030E010916500009164000C5F95
:14016E001F4F99D0802F912F8F779070282E3324309267005B
:14018200209266008AE190E03090670020906600280E391EAC
:14019600E22DF32DC895202C332422E030E0022D132D84D051
:1401AA00201A310A8AE190E05090690040906800480E591EA3
:1401BE00E42DF52DC895402C5524420C531C50924B004092FC
:1401D2004A0009900FBEF991E99199918991399129911991F3
:1401E6000991599049903990299009901895222425BE80E850
:1401FA0089BF81E88FBD81E08EBD80E281BB789408950027DA
:14020E00112700000F5F1F4F0A30E0E01E07CCF308954427E2
:14022200E8DF8FE084BB80EF85BB4427EEDF63B367FD0DC025
:140236008EE990E0242E3324280E391EE22DF32DC895009279
:14024A00610044E003C02224209261004395660F443050F3FB
:14025E0080EF84BB8FE085BB4427D1DF63B3862F8F70829533
:14027200682F67FD0DC08AE990E0242E3324280E391EE22D88
:14028600F32DC8950092600044E003C02224209260004395DE
:14029A00660F443050F3C1CF0895222321F0169507952A959B
:1202AE00FACF0895222321F0159507952A95FACF089517
:00000001FF
