:0200000017C027
:02000600B8C080
:14001A003F065B4F666D7D077F6F777C395E79713F3F3F3F2E
:14002E003F3FCFE5D2E0CDBFDEBFC051D0400AEA08830024ED
:14004200E6E6F0E010E0EA36F10711F00192FBCF0083EAE259
:14005600F0E0A0E6B0E010E0E033F10721F0C89531960D92E1
:14006A00F9CF66D0FFCF01E010E002C00F5F1F4F0637E4E046
:14007E001E07D0F30895B5D0442716C080E690E0E42FFF2714
:14009200E80FF91F208028BA01E0142FC7D0202E209422BA30
:1400A600E4DF01E0142FC0D022B2202A22BA4395463040F354
:1400BA009DD00895B2D0A02EB12E66271FC02AE030E00A2D3C
:1400CE001B2D70D0402F512F8AE190E0242E3324280E391E96
:1400E200E22DF32DC89580E690E0E62FFF27E80FF91F0082DC
:1400F6002AE030E00A2D1B2D5BD0A02EB12E63956630F8F20D
:14010A008FD008958FE381BB8FEF87BB82BB88BB88E089BF47
:14011E0022242FBC82EC8EBD332430924500209244003092CD
:140132004D0020924C000895E9DF78949091690080916800FA
:14014600887FF0916700E0916600E87FE817F90741F0309088
:14015A00670020906600309269002092680010916900009134
:14016E006800A6DF88DFE4CF08952A923A928A932FB62A9293
:1401820024B435B430926700209266002224332430924500C3
:140196002092440030924D0020924C0082EC8EBD29902FBEF3
:1401AA008991399029901895689401C0E894EA92FA928A939A
:1401BE00EE24FF1881E1001F111F8A9539F416F40E2D1F2D76
:1401D2008991F990E9900895EE1CFF1CE21AF30A20F4E20E3E
:1401E600F31E8894ECCF0894EACF5A934A930895E1E04991C6
:1401FA005991E0FD089569917991E1FD0895A990B990E2FDAD
:14020E000895C990D990E3FD0895E990F99008957A936A9357
:14022200E6CFBA92AA92FACFE4E0E5CF112319F0000F1A954F
:04023600FBCF08955D
:00000001FF
