:0200000017C027
:02000600D3C065
:14001A003F065B4F666D7D077F6F777C395E79713F3F3F3F2E
:14002E003F3FCFE5D2E0CDBFDEBFC051D0400AEA08830024ED
:14004200E6E6F0E010E0EA36F10711F00192FBCF0083EAE259
:14005600F0E0A0E6B0E010E0E033F10721F0C89531960D92E1
:14006A00F9CF66D0FFCF01E010E002C00F5F1F4F0637E4E046
:14007E001E07D0F30895F0D0442716C080E690E0E42FFF27D9
:14009200E80FF91F208028BA01E0142F02D1202E209422BAF4
:1400A600E4DF01E0142FFBD022B2202A22BA4395463040F319
:1400BA00D8D00895EDD0A02EB12E66271FC02AE030E00A2DC6
:1400CE001B2DABD0402F512F8AE190E0242E3324280E391E5B
:1400E200E22DF32DC89580E690E0E62FFF27E80FF91F0082DC
:1400F6002AE030E00A2D1B2D96D0A02EB12E63956630F8F2D2
:14010A00CAD008958FE381BB8FEF87BB82BB88BB88E089BF0C
:14011E0022242FBC82EC8EBD332430924500209244003092CD
:140132004D0020924C0008952897E8DF789430916700209166
:14014600660004E610E059D0202E312E44245524EC2FFD2F67
:14015A0020823182428253823090670020906600509069001D
:14016E0040906800420C531C242C352C442455242482358299
:140182004682578260807180828093805A924A923A922A9292
:14019600062D172D282D392DC9D0A02E11278CDF6EDFCBCF32
:1401AA00289608952A923A928A932FB62A922EB426FE07C0D3
:1401BE0024B435B4309269002092680006C024B435B43092DE
:1401D20067002092660022243324309245002092440030923E
:1401E6004D0020924C0080E42EB428262EBC29902FBE89917C
:1401FA003990299018950A921A92002411240030010741F0B8
:14020E001695079510F4020E131E220F331FF5CF002D112D9E
:14022200199009900895689401C0E894EA92FA928A93EE2479
:14023600FF1881E1001F111F8A9539F416F40E2D1F2D8991F5
:14024A00F990E9900895EE1CFF1CE21AF30A20F4E20EF31ECE
:14025E008894ECCF0894EACF5A934A930895E1E04991599174
:14027200E0FD089569917991E1FD0895A990B990E2FD089581
:14028600C990D990E3FD0895E990F99008957A936A93E6CFC7
:14029A00BA92AA92FACFE4E0E5CF112319F0000F1A95FBCFC2
:1402AE000895082D192D2A2D3B2D08958A929A92AA92BA92F8
:1402C200EA93CA928A939A93AA93BA938A859B85AC85BD85D9
:1402D6000895B991A99199918991C990E991B990A990999031
:1402EA0089902496089500951095209530950F5F1F4F2F4F82
:1402FE003F4F089580959095A095B0958F5F9F4FAF4FBF4F25
:140312000895CC24C02AC12AC22AC32A0895CC24C82AC92A2A
:14032600CA2ACB2A0895C6DF0CD0D3CFC3DF14D0D0CFC0DF56
:14033A0006D0B9DFCCCFBCDF0DD0B5DFC8CF33232AF0BB23B5
:14034E003AF4D8DF05D0CDCFCCDFBB23DAF7D2DFE0DF31F159
:14036200D8DF01F188249924AA24BB24000F111F221F331FF6
:14037600E0E2881C991CAA1CBB1C88169906AA06BB0630F0ED
:14038A00881A990AAA0ABB0A089401C08894001F111F221F98
:12039E00331FEA9551F7089588249924AA24BB240895E4
:00000001FF
