:06000600017A00017B00FD
:100E31007F03120DDA120D3D120CC1120DB80569B6
:020E410080FC33
:100D3D0043920143B208C2B4C2B57580FF7590FFEE
:100D4D0075A0FF75B0F775C00FC290E4F5B8F5B793
:100D5D00D2B8D2B9D2BC43B701C2A8C2AAD2AF226F
:080C2F007F987E3A7D007C00F5
:080C37008F6F8E6E8D6D8C6CC9
:100C3F00E4F570F571F582F583F570F571E4F583E0
:100C4F00F582AF82AE83E4FCFDAB6FAA6EA96DA8EF
:100C5F006CD31205FB4006000000A380E50571E58B
:0B0C6F0071700205706405457070D2C2
:010C7A002257
:020DDA008F6A1E
:100DDC00E4F56BE56BC3956A5012C2B4C2B5120C44
:0C0DEC002FD2B4D2B5120C2F056B80E79B
:010DF80022D8
:100D9600787B7601E4F558F557F556F5557561D229
:100DA600756004F55FF55E1209D47F07120DF9022E
:020DB6000BDD53
:100DB800787B7601E4F558F557F556F5557561D306
:100DC800756004F55FF55E1209D47F07120DF9020C
:020DD8000BDD31
:100E1600E4FEC297EF30E704D2928002C292D293E8
:0A0E2600EF25E0FFC2930EBE08EABC
:010E3000229F
:03000300020D02E9
:100D0200C0E0C0F0C083C082C0D075D000C000C0B7
:100D120001C002C003C004C005C006C007120757C5
:100D2200D007D006D005D004D003D002D001D00025
:0B0D3200D0D0D082D083D0F0D0E032CF
:100C7B00626569206A696E67000000000073686F27
:100C8B00752064750000000000007368616E6720BA
:100C9B00686169000000007469616E206A696E000A
:100CAB000000000063686F6E672071696E6700005B
:060CBB000001010307081F
:10000C0064D30000494433030000000001765052D1
:10001C0049560000000E00005065616B56616C750E
:10002C006500FF7F0000505249560000001100008F
:10003C00417665726167654C6576656C00A1290037
:10004C0000000000000000000000000000000000A4
:10005C000000000000000000000000000000000094
:10006C000000000000000000000000000000000084
:10007C000000000000000000000000000000000074
:10008C000000000000000000000000000000000064
:10009C000000000000000000000000000000000054
:1000AC000000000000000000000000000000000044
:1000BC000000000000000000000000000000000034
:1000CC000000000000000000000000000000000024
:1000DC000000000000000000000000000000000014
:1000EC000000000000000000000000000000000004
:1000FC0000000000000000000000000000000000F4
:10010C0000000000FFE210C00BC10007F04E80D0D1
:10011C00618628F3F6006E040E4CD7B4111C8217BE
:10012C0076C93113E51C185C83C6BC85DB913E3067
:10013C00073E53251C160D3EFFE210C06C920508BD
:10014C002856C5714F00000CE2CE236A07EC0CF167
:10015C00DE6BC064CC7BC910063CFFFFFDB15020A8
:10016C00205CD70402763A9588F731BEFFE212C0C4
:10017C004AC10905B036F42989000041D487E8FB4F
:10018C00BFFFFFE8089FFFD65F680F76CD0C927D0E
:10019C000F6E5482CA7FFFFFFF3AB1E0B202C7ED87
:1001AC0079FFE210C0B5381807904704B1C70000BA
:1001BC009103CE0A82041F80040147F86BC20FFF23
:1001CC00080F6A898A7FFFFFFC11890C8A099CD071
:1001DC00C4426D0F49FFE210C0E7FC1E07A076FD7C
:1001EC0070394A486D908680FC7E0DBDF25D4DD015
:1001FC0026205817FFEB7C4C02EA482AE98D3F6019
:10020C001A82C07E2209EF90C7FFE210C0A4C62458
:10021C000658730990104A48C930CAC606D1E1AFD6
:10022C00FEB1A83803089D20844A402C7F06003775
:10023C00207037B18580004161A20A7113FFE21270
:10024C00C0E95B2F06786F01902850483B3A7FFF3E
:10025C00FFFFFF4BAB6FB3B19950470CA5F2268A49
:10026C00023EA5E6233A16B08729865D07FC868AEE
:10027C00D404FFE210C04E213B09C967059011441C
:10028C00916353FFFFFFFFFFFFFFF2E533A0A431A3
:10029C008C6941F408880003C12F1680696EECE963
:1002AC0028B9B651141CFFE210C0195C38094992E8
:1002BC00DCC8840490BBFFFFFFFFFE0D3BE9FCB3E1
:1002CC00EB01F830013F78F48014203D575A6A272F
:1002DC0044E954E9968BA5430AB0FFE210C090BCE8
:1002EC003707805AEB840ACE2885FFFF00B1271907
:1002FC000D198442032200008C26FA2AF70315D923
:10030C000A46B2C6F341AF23FFFF51203D67FFE21F
:10031C0012C0972D3E088086A1A14F4800DFE65100
:10032C00A0C529501032001089BF9A3E246FA0122C
:10033C00816005C0AE7E251507FFFFFFCFB3FE9B86
:10034C0058806DFFE210C0F33E4208806B0D19829D
:10035C001000228C0D046FF163C57F8F0F80D0D0FD
:10036C00321BFA2648FFFFFCD05CC7FFC90A881075
:10037C0008023FE8A46037FFE210C0F0CC45081833
:10038C005F1639CA0000FFF83030E45DA35A32D34F
:10039C0080A6BFFE9A1BFFFFFFABB1C81C2E80923C
:1003AC001B8081F800C22220191AA0FFE210C0E9BC
:1003BC003E4907388F057009DA4CCACEE2B92717C7
:1003CC0008C1C1D156CD5C0C1DFFFFD33440800158
:1003DC009024798B6D855A22989B4652CA2405FF2E
:1003EC00E212C06A2C5107A94705482984906D4D2B
:1003FC00C977FFFFADC74CA6601186C28968512C26
:10040C00A2789F199808080A44933FFFFFF057FF02
:10041C00FCEAC603FFE210C05AE9580830931630C4
:10042C0008584C21A4016BC00A8F8048861495890A
:10043C00C862283A1126552790B889CB3568725472
:10044C0088446C1151AD0000FFE210C0DC6D5C06FD
:10045C00B08B059008504C54414700000000000040
:10046C000000000000000000000000000000000080
:10047C000000000000000000000000000000000070
:10048C000000000000000000000000000000000060
:10049C000000000000000000000000000000000050
:1004AC000000000000000000000000000000000040
:1004BC000000000000000000202020202020202030
:1004CC002020202020202020202020202020202020
:1004DC002020202020200C045500000000045E0089
:1004EC00000000045100000000045900000000014D
:0804FC007900015D0001760F9B
:100CC100D2B37F017E007D007C00120C37C2B37F5E
:100CD100017E007D007C00120C37D2B37F017E00C3
:100CE1007D007C00120C37C2A67F017E007D007C56
:100CF10000120C37D2A67F017E007D007C00020C21
:010D010037BA
:10086800E4F55D7F06120E4E7D357F17120E437F2D
:100878000A7E007D007C00120C377F06120E4E7D2A
:10088800037F89120E437F057E007D007C00120CD9
:10089800377D437FCF120E437F057E007D007C00AD
:1008A800120C377D027FCB120E437D0A7F11120E88
:1008B800437879E6B44019E4FD7F1E120E437D0F9C
:1008C8007F19120E437D187F1B120E437D2B801754
:1008D800E4FD7F1E120E437D3F7F19120E437D48B3
:1008E8007F1B120E437D1F7F1D120E437F0A7E0061
:1008F8007D007C00120C377D047FCD120E437D4CA9
:100908007F17120E437F057E007D007C00120C3796
:0E091800E4FD7FB9120E437D4F7FCF020E43E8
:1009D400787976401208687D027FBD120E437D4807
:1009E4007F17120E437F0A7E007D007C00120C37B5
:1009F4007D527F85120E43E4FD7F8F120E43E4FD8A
:100A04007F81120E43E4FD7F83120E437DFF7F8EB0
:100A1400120E437DFF7F8D120E437F017E007D0009
:100A24007C00120C377DFF7F87120E437DFF7F8988
:100A3400120E437F017E007D007C00120C37E4FD22
:100A44007F22120E43E4FD7F23120E437DEF7F20AD
:100A5400120E437D077F21120E437D777F24120EF1
:100A6400437D037F25120E437DBB7F26120E437DFB
:060A7400017F27020E4382
:100B7A0078797608120868E4FD7FBD120E437D4835
:100B8A007F17120E437F0A7E007D007C00120C370D
:100B9A007D807F3C120E437D077F3E120E437DFF10
:100BAA007F38120E437D077F3A120E43E4FD7F40E1
:100BBA00120E437D087F42120E43E4FD7F44120E5B
:100BCA00437D087F46120E437F017E007D007C0034
:030BDA00020C37D3
:10075700E4F562C2A87F2B120E4E7875A60778794A
:10076700E664087051FD7F29120E43E4FD7F0212F3
:100777000E437875E630E42D7FB2120E4EEF6421FA
:1007870070237FBF120E4EBF351B7FBA120E4E8FDE
:1007970062E562D39400400DE562D3940450067875
:1007A7007A76108004787A7611E4FD7F2B120E4357
:1007B700E4FD7F1C805E7F29120E4E7874A6077FAA
:1007C70002120E4E7877A607E4FD7F29120E43E446
:1007D700FD7F02120E437FBA120E4EEF30E538E46A
:1007E700FD7F2B120E43E4FD7FBA120E43E4FD7F1B
:1007F700BC120E43E4F55D7D017F08120E437F05B1
:100807007E007D007C00120C37E4FD7F08120E434A
:10081700E4FD7F33020E43AF61AE60AD5FAC5EAB0C
:1008270054AA53A952A851C31205FB40117D017F59
:10083700BC120E437D107F29120E43D2A822120646
:100847003F7874E6FD7F29120E437877E6FD7F0235
:10085700120E437F0A7E007D007C00120C37D2A85F
:01086700226E
:100BDD00E4F554F553F552F551755D01AF61AE6015
:100BED00AD5FAC5EAB54AA53A952A851C31205FB1D
:100BFD00502F12063FE4FD7FBA120E437D487F173A
:100C0D00120E437D017F33120E437D047F29120E98
:100C1D00437D017F02120E437D5A7F85120E43D212
:020C2D00A822FB
:100DF9007876A607C3740F9F540F25E025E044C3F6
:0D0E0900FD7F8E120E437D787F87020E4321
:10063F00787BE6605E80517878E620E356AF61AE56
:10064F0060AD5FAC5EAB54AA53A952A851C312055B
:10065F00FB5040785112061F74002FF58274003E34
:10066F00F583E0F56EFD7F01120E43E47FD37E0428
:10067F00FDFCAB54AA53A952A851C31205FB700835
:10068F00F554F553F552F5517F06120E4E7878A6B4
:10069F000780A4E5582554F56DE5573553F56CE5FE
:1006AF00563552F56BE5553551F56AD297C293C25F
:1006BF00977F0B120E16E56DFFE56CFEE56BFDE403
:1006CF00FC781012060C120E16E56DFFE56CFEE4B9
:1006DF00FDFC780812060C120E16E56DFFE4120EE3
:1006EF00167FFF120E1680507878E620E355AF6123
:1006FF00AE60AD5FAC5EAB54AA53A952A851C31202
:10070F0005FB503FE4F56EFFC293E56E25E0F56EF5
:10071F00D293A296E433426E0FBF08ECAD6E7F0109
:10072F00120E43E5542401F554E43553F553E435E3
:10073F0052F552E43551F5517F06120E4E7878A6D8
:07074F000780A5D297C293B9
:010756002280
:100D6D00E4F573F5727FB2120E4EBF210575730156
:100D7D0080147F0A7E007D007C00120C370572E521
:080D8D0072C3940A40DFAF734A
:010D9500223B
:030E5F00020B7A09
:100B06007D437F35120E437D097F1C120E437D20E7
:100B16007FBD120E437D017F08120E437F017E00CA
:100B26007D007C00120C37E4FD7F08120E437F0126
:100B36007E007D007C00120C37120D6DEF7002FFF7
:100B4600227DFF7FB2120E437D067F37120E437F52
:100B5600057E007D007C00120C377D0B7F1C120E7B
:100B6600437D107F29120E43E4FD7FBD120E43D252
:040B7600A87F012231
:10092600780B7C007D007BFF7A0C797B7E007F4113
:100936001205D5784C7C007D007BFF7A0C79BC7E55
:10094600007F051205D5750901E4F508120D6DEF56
:100956007004F5098075744C2508F8E6FD7FC11210
:100966000E43E4FD7FC3120E437D047F08120E433F
:100976007F017E007D007C00120C37E4FD7F0812AB
:100986000E437F017E007D007C00120C37E4F50AE1
:10099600E50875F00DA4240B250AF8E6FD600E7F28
:1009A60005120E43050AE50AC3941440E3AD0A7F17
:1009B600B9120E437DFF7FB2120E437D047F3712BC
:0D09C6000E430508E508C394054081AF0904
:0109D3002201
:060E59007FC5120E4E22BF
:0B0E4300908100EFF0908000EDF022A5
:0B0E4E00908100EFF0908000E0FF2298
:03000000020A7A77
:0C0A7A00787FE4F6D8FD75817B020AC18C
:10050500E709F608DFFA8046E709F208DFFA803ED8
:1005150088828C83E709F0A3DFFA8032E309F608C5
:10052500DFFA8078E309F208DFFA807088828C832D
:10053500E309F0A3DFFA806489828A83E0A3F608E1
:10054500DFFA805889828A83E0A3F208DFFA804CBB
:1005550080D280FA80C680D4806980F28033801092
:1005650080A680EA809A80A880DA80E280CA8033FB
:1005750089828A83ECFAE493A3C8C582C8CCC58373
:10058500CCF0A3C8C582C8CCC583CCDFE9DEE78043
:100595000D89828A83E493A3F608DFF9ECFAA9F0C2
:1005A500EDFB2289828A83ECFAE0A3C8C582C8CC18
:1005B500C583CCF0A3C8C582C8CCC583CCDFEADE31
:1005C500E880DB89828A83E493A3F208DFF980CC93
:1005D50088F0EF60010E4E60C388F0ED2402B4048C
:1005E5000050B9F582EB2402B4040050AF23234533
:0605F500822390055573FE
:1005FB00EB9FF5F0EA9E42F0E99D42F0E89C45F056
:01060B0022CC
:10060C00E8600FECC313FCED13FDEE13FEEF13FFCC
:03061C00D8F122F0
:10061F007401FF3395E0FEFDFC080808E6CF2FF6C6
:10062F0018E6CE3EF618E6CD3DF618E6CC3CF6229F
:100A8600020E31E493A3F8E493A34003F68001F247
:100A960008DFF48029E493A3F85407240CC8C33371
:100AA600C4540F4420C8834004F456800146F6DF40
:100AB600E4800B0102040810204080900006E47ECA
:100AC600019360BCA3FF543F30E509541FFEE49335
:100AD600A360010ECF54C025E060A840B8E493A3FC
:100AE600FAE493A3F8E493A3C8C582C8CAC583CA27
:100AF600F0A3C8C582C8CAC583CADFE9DEE780BEDF
:0105040000F6
:00000001FF
