:0200000017C027
:14001A003F065B4F666D7D077F6F777C395E79713F3F3F3F2E
:14002E000000CFE5D2E0CDBFDEBFC051D0400AEA088300246B
:14004200E6E6F0E010E0E836F10711F00192FBCF0083EAE25B
:14005600F0E0A0E6B0E010E0E033F10721F0C89531960D92E1
:14006A00F9CF65D0FFCF8FE381BB8FEF87BB82BB88BB08952C
:14007E002CD210E10091660013D2402F8AE190E0242E3324B0
:14009200280E391EE22DF32DC8950092600010E10091660067
:1400A60005D2402F8AE190E0242E3324280E391EE22DF32DC0
:1400BA00C8950092610010E100916700F3D1402F8AE190E0EB
:1400CE00242E3324280E391EE22DF32DC8950092620010E177
:1400E20000916700E5D1402F8AE190E0242E3324280E391EDC
:1400F600E22DF32DC89500926300442716C080E690E0E42F4B
:14010A00FF27E80FF91F208028BA01E0142F05D2202E20942D
:14011E0022BA2CD101E0142FFED122B2202A22BA43954630B9
:1401320040F3D4D108952197222425BE209267002092660032
:140146006627AA2492DF6AC02DD1202E312EC22C8C2D8F3797
:14015A0009F458C025D1202E312EE22C8BDFCE14C9F38C2D0A
:14016E00803888F0AA2049F081E088832091670006E610E0EA
:1401820080D0AA2402C080E8A82EA092650066273DC0462FB5
:1401960055274030450729F04130E0E05E07E1F033C0AA20E0
:1401AA0061F4809167008F70E82E8C2D8F7082952E2C282AE4
:1401BE00209267000BC0809166008F70E82E8C2D8F708295EE
:1401D2002E2C282A2092660061E018C0AA2059F480916700AD
:1401E600807FE82E8C2D8F702E2C282A209267000AC0809198
:1401FA006600807FE82E8C2D8F702E2C282A2092660066276D
:14020E00AA2039F481E088832091670006E610E06DD02EDF3B
:1402220095CF21960895002701C003950130E8F3089583E084
:140236008ABBD89AD99AF5DFD898F3DFD9980895D99AD89883
:14024A00EEDFD89AECDFD9980895D898D99AE7DFD998D89AFC
:14025E000895D89AD99AE1DFD998D8980895002782E08ABBFE
:14027200D99A09B30170D998000083E08ABB1127089543D1D6
:14028600A22E602F712F4E815F81D1DF00EA10E05CD0E9DF38
:14029A00C6DF0A2D112757D0E4DFC1DF0AC0E62FF72F00812C
:1402AE0011274FD0DCDFB9DF6F5F7F4F4A954423A1F7C2DF77
:1402C2000AE010E063D029D108951CD1662748E00DC082E0B3
:1402D6008ABBD89AA6DFD99A660F89B38170682BD99883E05C
:1402EA008ABB4A95442389F7062F112710D1089508D1A22E61
:1402FE00602F712F4E815F8196DF00EA10E021D0AEDF0A2D0A
:1403120011271DD0AADF8DDF01EA10E018D0A5DF0AC0D3DFFA
:14032600202E312EE62FF72F208291DF6F5F7F4F4A954130DD
:14033A00A1F7C7DF202E312EE62FF72F20828BDF7DDFE7D06A
:14034E000895DAD0602F48E00CC0862F8078803811F4D89AF5
:1403620001C0D898D99A5FDFD998660F4A95442391F7D89881
:14037600D0D0089501E010E002C00F5F1F4F0637E4E01E07A1
:14038A00D0F30895BBD0602F712F4427552703C0EFDF4F5F1F
:14039E005F4F46175707D0F3B8D00895B3D0AA24BB248FE05B
:1403B20084BB8FEF85BB81B38F7781BB44276FC001E0142F06
:1403C600AED0202E209425BAD5DF83B3807FC82E879902C003
:1403DA008160C82E8C2D803F09F45AC005E010E0D1DF83B3EE
:1403EE00807FC82E879906C08160C82E81E090E0A82EB92EBB
:140402008C2D803F09F448C0807FC82E6C2D7727603BE0E0E2
:140416007E07F1F080EB90E0861797072CF06037E0E07E075E
:14042A0071F029C0603DE0E07E07B9F0603DE0E07E070CF10A
:14043E00603EE0E07E07B1F01CC0242E220C220C8FE0C82E37
:14045200C21817C0242E220C220C8EE0C82EC21810C0242ED7
:14046600220C220C8DE0C82EC21809C0242E220C220C8CE006
:14047A00C82EC21802C08FE7C82E81E090E0A816B90619F415
:14048E008C2D8068C82E0C2D112708C08FEF85BB4395443080
:1404A20008F48ECF0FE710E03AD00895689401C0E894FA929B
:1404B600FF1829E0001F2A9521F40EF40F2DF9900895FF1CA0
:1404CA00F11A18F4F10E8894F3CF0894F1CF5A934A93089567
:1404DE00E1E049915991E0FD089569917991E1FD0895A99053
:1404F200B990E2FD0895C990D990E3FD0895E990F990089553
:140506007A936A93E6CFBA92AA92FACFDA92CA92FACFE2E07E
:14051A00E2CFE4E0E0CFE8E0DECF112319F0000F1A95FBCF6F
:02052E0008952E
:00000001FF
