:0200000017C027
:14001A003F065B4F666D7D077F6F777C395E79713F3F3F3F2E
:14002E000000CFE5D2E0CDBFDEBFC051D0400AEA088300246B
:14004200E6E6F0E010E0E836F10711F00192FBCF0083EAE25B
:14005600F0E0A0E6B0E010E0E033F10721F0C89531960D92E1
:14006A00F9CF8FD0FFCF1BD2622F402F04D100EA3BD117D1ED
:14007E00062F38D114D1042F35D111D103D10AE010E04FD162
:1400920013D20895F1D1402FF2D000EA29D105D1042F26D101
:1400A60002D1EBD001EA22D1FED009D1202E312E422DF3D053
:1400BA00EBD0042F1127DFD108958FE381BB8FEF87BB82BB14
:1400CE0088BB0895D3D110E100916600BAD1402F8AE190E0DD
:1400E200242E3324280E391EE22DF32DC8950092600010E165
:1400F60000916600ACD1402F8AE190E0242E3324280E391E02
:14010A00E22DF32DC8950092610010E1009167009AD1402F9F
:14011E008AE190E0242E3324280E391EE22DF32DC89500929E
:14013200620010E1009167008CD1402F8AE190E0242E33241E
:14014600280E391EE22DF32DC89500926300442716C080E6F0
:14015A0090E0E42FFF27E80FF91F208028BA01E0142FAAD1B8
:14016E00202E209422BAD3D001E0142FA3D122B2202A22BA6A
:140182004395463040F37BD10895222425BE2092670020920B
:1401960066006627AA2493DF68C0D5D0202E312EC22C8C2D01
:1401AA008F3709F456C0CDD0202E312EE22C8CDFCE14C9F307
:1401BE008C2D803878F0AA2039F020916700009166004FDF24
:1401D200AA2402C080E8A82EA092650066273DC0462F552739
:1401E6004030450729F04130E0E05E07E1F033C0AA2061F4B7
:1401FA00809167008F70E82E8C2D8F7082952E2C282A209237
:14020E0067000BC0809166008F70E82E8C2D8F7082952E2CF5
:14022200282A2092660061E018C0AA2059F480916700807FB7
:14023600E82E8C2D8F702E2C282A209267000AC080916600E0
:14024A00807FE82E8C2D8F702E2C282A209266006627AA20B8
:14025E0039F40091670018DF202E312E2092660031DF97CF35
:140272000895002701C003950130E8F3089583E08ABBD89A98
:14028600D99AF5DFD898F3DFD9980895D99AD898EEDFD89AAB
:14029A00ECDFD9980895D89AD99AE7DFD998D8980895002727
:1402AE0082E08ABBD99A09B30170D998000083E08ABB1127A4
:1402C2000895F1D0662748E00DC082E08ABBD89AD0DFD99A0D
:1402D600660F89B38170682BD99883E08ABB4A95442389F700
:1402EA00062F1127E5D00895DAD0602F48E00CC0862F807867
:1402FE00803811F4D89A01C0D898D99AB4DFD998660F4A95C1
:14031200442391F7D898D0D0089501E010E002C00F5F1F4FCC
:140326000637E4E01E07D0F30895BBD0602F712F442755279C
:14033A0003C0EFDF4F5F5F4F46175707D0F3B8D00895B3D09C
:14034E00AA24BB248FE084BB8FEF85BB81B38F7781BB4427A1
:140362006FC001E0142FACD0202E209425BAD5DF83B3807FEE
:14037600C82E879902C08160C82E8C2D803F09F45AC005E050
:14038A0010E0D1DF83B3807FC82E879906C08160C82E81E076
:14039E0090E0A82EB92E8C2D803F09F448C0807FC82E6C2D13
:1403B2007727603BE0E07E07F1F080EB90E0861797072CF0A6
:1403C6006037E0E07E0771F029C0603DE0E07E07B9F0603DD5
:1403DA00E0E07E070CF1603EE0E07E07B1F01CC0242E220CED
:1403EE00220C8FE0C82EC21817C0242E220C220C8EE0C82EA5
:14040200C21810C0242E220C220C8DE0C82EC21809C0242E36
:14041600220C220C8CE0C82EC21802C08FE7C82E81E090E03B
:14042A00A816B90619F48C2D8068C82E0C2D112708C08FEFE6
:14043E0085BB4395443008F48ECF0FE710E038D0089568943E
:1404520001C0E894FA92FF1829E0001F2A9521F40EF40F2D7C
:14046600F9900895FF1CF11A18F4F10E8894F3CF0894F1CFF1
:14047A005A934A930895E1E049915991E0FD08956991799104
:14048E00E1FD0895A990B990E2FD0895C990D990E3FD0895A2
:1404A200E990F99008957A936A93E6CFBA92AA92FACFDA922B
:1404B600CA92FACFE2E0E2CFE8E0E0CF112319F0000F1A9528
:0404CA00FBCF0895C7
:00000001FF
