:10000300E4FDFCC3ED9FEC9E5015E4FBFA0BBB0033
:0F001300010ABA06F8BBA4F50DBD00010C80E48C
:0100220022BB
:100B030043920143B20875BBFF7580FF7590FF7573
:100B1300A0FF75B0F775C03FE4F5B8F5B7D2B8D20A
:0D0B2300B9D2BC43B701C2A8C2AAD2AF220A
:1009FD00E49000A5F0A3F0A3F090008312019D00F8
:100A0D000000007FDC7E05120003120B03120BB7F2
:100A1D00120C2EC2C1C2A720C2FD7F0A7E00120099
:100A2D000320C2F330C2FD90008312019D0000002F
:100A3D0000C2C0C2A1D2A2D2A3120BD1C2A2C2A324
:060A4D00C2C0C2A180D16D
:010A53002280
:0D0C0A00E4FEAD071FED70FA0EEEB40CF520
:010C170022BA
:090C2E00C293D294D295D2972210
:100B9900E4FEC297C293EF30E704D2928002C29278
:0D0BA900D293EF25E0FFC2930EEEB408E9F1
:010BB600221C
:100B5500E4FFFEFDC297EE25E0FEA296E433FDD24A
:100B650093B40104EE4401FEC2930FEFB408E7AF5E
:010B75000679
:010B7600225C
:0E0BFB00E4FFC2977F05120B99120B55D2979B
:010C090022C8
:0C0C1800120BFBBF0305120BFB80F52242
:100BE800AD07AC06C2977F01120B99AF05120B999E
:030BF800D297226F
:0A0C2400C2977F06120B99D29722A7
:100B3000C2977FAB120B99E4FF120B99E4FF120BE3
:100B400099E4FF120B99120B55AC07D2977F041250
:040B50000C0AAF04D8
:010B5400227E
:020A9400AD07AC
:100A9600C2977F90120B99E4FF120B99E4FF120B99
:100AA60099AF05120B99120B55EF9000D7F0A3E4FE
:100AB600F0120B559000D7E0FEA3E04FFF9000D751
:080AC600EEF0FEA3EFF0D29761
:010ACE002205
:100B7700C2977F9F120B99120B55AC07120B55EFBB
:100B870012003F120B55900001EF120051D297AFA0
:010B97000459
:010B9800223A
:0609A2009000C412019157
:1009A800E4FFC2977F03120B999000C4E0FCA3E018
:1009B800FDA3E0FEA3E0FFEEEDE4FC781012017E5B
:1009C800120B999000C4E0FCA3E0FDA3E0FEA3E0B5
:1009D800FFEEE4FDFC780812017E120B999000C42A
:1009E800E0FCA3E0FDA3E0FEA3E0FFE4120B9912F4
:0409F8000B55D29732
:0109FC0022D8
:100814009000BA120191C297120C24120C18C297BC
:100824007F02120B999000BAE0FCA3E0FDA3E0FE66
:10083400A3E0FFEEEDE4FC781012017E120B999018
:1008440000BAE0FCA3E0FDA3E0FEA3E0FFEEE4FDBC
:10085400FC780812017E120B999000BAE0FCA3E028
:10086400FDA3E0FEA3E0FFE4120B99A3E0FF120B4B
:0908740099D2977F02120C0A22AE
:06087D009000C812019179
:10088300E4FCC2977F0B120B999000C8E0FCA3E035
:10089300FDA3E0FEA3E0FFEEEDE4FC781012017E81
:1008A300120B999000C8E0FCA3E0FDA3E0FEA3E0D7
:1008B300FFEEE4FDFC780812017E120B999000C84C
:1008C300E0FCA3E0FDA3E0FEA3E0FFE4120B997FAD
:1008D300FF120B99120B55AC07D2977F02120C0A29
:0208E300AF0460
:0108E50022F0
:100679009000B21201919000B6EBF0A3EAF0A3E961
:01068900F080
:10068A00E4FCC2977F0B120B999000B2E0FCA3E046
:10069A00FDA3E0FEA3E0FFEEEDE4FC781012017E7C
:1006AA00120B999000B2E0FCA3E0FDA3E0FEA3E0E8
:1006BA00FFEEE4FDFC780812017E120B999000B25D
:1006CA00E0FCA3E0FDA3E0FEA3E0FFE4120B997FA8
:1006DA00FF120B99E4FC9000B9E0FFECC39F501A9B
:1006EA00120B559000B6E0FBA3E0FAA3E0F98C8266
:1006FA00758300EF1200510C80DCD2977F01120C37
:01070A000AE4
:01070B0022CB
:0607980090009A1201918D
:10079E00C297120C24C2977F02120B9990009AE016
:1007AE00FCA3E0FDA3E0FEA3E0FFEEEDE4FC781079
:1007BE0012017E120B9990009AE0FCA3E0FDA3E0DB
:1007CE00FEA3E0FFEEE4FDFC780812017E120B9909
:1007DE0090009AE0FCA3E0FDA3E0FEA3E0FFE4128C
:1007EE000B999000A174FFF5F012008945F060108E
:1007FE00120026FF120B99740129F9E43AFA80E2ED
:05080E00D297120C1846
:0108130022C2
:10034B0090008D120191900091EBF0A3EAF0A3E9DC
:01035B00F0B1
:10035C0090008DE0FCA3E0FDA3E0FEA3E0FFE4C36E
:10036C009FFF74019400FE900098F0A3EFF0E4FC62
:10037C00FD900094E0F8A3E0F9A3E0FAA3E0FBD32E
:10038C0012016D5011900094E0A3E0A3E0FFA3E0F4
:10039C00A3CFF0A3EFF0900091E0FBA3E0FAA3E071
:1003AC00F9900098E0FFA3E09000A1CFF0A3EFF04C
:1003BC0090008DE0FCA3E0FDA3E0FEA3E0FF12079C
:1003CC0098900098E0FEA3E0FFE4FCFD900094E020
:1003DC00F8A3E0F9A3E0FAA3E0FBC312016D7006E9
:1003EC007F01120C0A22900098E0FEA3E0FF90001F
:1003FC0092EE8FF012007390008DE0F8A3E0F9A359
:10040C00E0FAA3E0FBE4FCFDEB2FFFEA3EFEED3946
:10041C00FDEC38FC90008D120191900094E0FCA34F
:10042C00E0FDA3E0FEA3E0FFC006C007A3E0FEA32F
:10043C00E0FFFBAA06E4D007D006C3EF9BFFEE9AC1
:10044C00FEED9400FDEC9400FC900094120191E4FC
:10045C00FF7E01FDFC900094E0F8A3E0F9A3E0FA24
:10046C00A3E0FBD312016D400C9000987401F0A333
:10047C00E4F00203A2900094E0A3E0A3E0FFA3E069
:09048C00A3CFF0A3EFF00203A2DC
:010495002244
:100BD100C297120C24C297120C18C2977FC7120B2E
:070BE10099D297120C1822B3
:1008E6009000CC120191C297120C24C2977FD812A5
:1008F6000B999000CCE0FCA3E0FDA3E0FEA3E0FF93
:10090600EEEDE4FC781012017E120B999000CCE01B
:10091600FCA3E0FDA3E0FEA3E0FFEEE4FDFC780807
:1009260012017E120B999000CCE0FCA3E0FDA3E03F
:0E093600FEA3E0FFE4120B99D297120C1822D8
:100944009000D0120191C297120C24C2977F5212C8
:100954000B999000D0E0FCA3E0FDA3E0FEA3E0FF30
:10096400EEEDE4FC781012017E120B999000D0E0B9
:10097400FCA3E0FDA3E0FEA3E0FFEEE4FDFC7808A9
:1009840012017E120B999000D0E0FCA3E0FDA3E0DD
:0E099400FEA3E0FFE4120B99D297120C18227A
:1005D700440083000000006080000000000000006D
:1005E7000000000000000000000000000000000004
:1005F70000000000000000000000000000000000F4
:1006070000000000000000000000000000000000E3
:1006170000000000000000000000000000000000D3
:1006270000000000000000000000000000000000C3
:1006370000000000000000000000000000000000B3
:1006470000000000000000000000000000000000A3
:1006570000000000000000000000004300800000D0
:10066700004100880041008A00410089004100875D
:010677000082
:100BB700759850438920438780758DFFD28E758B3A
:0A0BC700FFC2ABD2BCD2AFD2AC2209
:080C37008F993099FDC299224A
:100ACF009000D4EBF0A3EAF0A3E9F09000D4E0FBA0
:100ADF00A3E0FAA3E0F912002660189000D4E0A377
:100AEF00E475F001120089A9F0FA120026FF120C2A
:040AFF003780D82242
:030C3F00D2AC2212
:030C4200C2AC221F
:030023000204963E
:10049600C0E0C0F0C083C082C0D075D000C000C02C
:0D04A60001C002C003C004C005C006C007AD
:1004B30090008BE4F0A3F02098030205BCC298904F
:1004C300008BE599F0900089E06403600302056006
:1004D30090008BE0FF90008AE02400F582E4340072
:1004E300F583EFF090008AE004F0900082E0FF9043
:1004F300008AE0C39F40669000897404F0A3E4F08F
:10050300C2A77B017A007900900082E0E4FCFDFE43
:10051300900094120191900083E0FCA3E0FDA3E01E
:10052300FEA3E0FF12034B900083E0F8A3E0F9A3DE
:10053300E0FAA3E0FB900082E0FFE4FCFDFEEB2F7A
:10054300FFEE3AFEED39FDEC38FCA3120191D2A780
:10055300900082E4F0900081F0900080F090008998
:10056300E0B4020E90008BE0900082F0900089745A
:1005730003F0900089E0B4011990008BE0FFB4DD33
:100583000C900081F09000897402F080059000893E
:10059300E4F0900089E0701390008BE0FFB4EE0B61
:1005A3009000897401F0900080EFF0900089E0B42E
:0905B3000407E4F07FBB120C37D1
:1005BC00D007D006D005D004D003D002D001D00093
:0B05CC00D0D0D082D083D0F0D0E0323D
:0601CE009000A81201914F
:1001D400E4FE9000ACF0A3F0A3F0A3F0A3F0A3F02E
:1001E4007B407A42790FF89000A8E0FCA3E0FDA3DD
:1001F400E0FEA3E0FF1200DB9000B1EFF07B407A59
:1002040042790F78009000A8E0FCA3E0FDA3E0FE93
:10021400A3E0FF1200DBAC00AD01AE02AF037BA094
:100224007A86790178001200DB9000B0EFF07BA0B1
:100234007A86790178009000A8E0FCA3E0FDA3E0B1
:10024400FEA3E0FF1200DBAC00AD01AE02AF03E49D
:100254007B107A27F9F81200DB9000AFEFF0E47B13
:10026400107A27F9F89000A8E0FCA3E0FDA3E0FED3
:10027400A3E0FF1200DBAC00AD01AE02AF03E47BF0
:10028400E87A03F9F81200DB9000AEEFF0E47BE8C3
:100294007A03F9F89000A8E0FCA3E0FDA3E0FEA334
:1002A400E0FF1200DBAC00AD01AE02AF03E47B64FF
:1002B400FAF9F81200DB9000ADEFF0E47B64FAF990
:1002C400F89000A8E0FCA3E0FDA3E0FEA3E0FF1289
:1002D40000DBAC00AD01AE02AF03E47B0AFAF9F82F
:1002E4001200DB9000ACEFF0E47B0AFAF9F890001E
:1002F400A8E0FCA3E0FDA3E0FEA3E0FF1200DBAF57
:1003040003AE079000B1E02430FF120C379000B028
:10031400E02430FF120C379000AFE02430FF120CC1
:10032400379000AEE02430FF120C379000ADE0248B
:1003340030FF120C379000ACE02430FF120C37EE83
:060344002430FF120C370B
:01034A002290
:100A54009000BFEBF0A3EAF0A3E9F0A3ECF0A3ED60
:010A6400F0A1
:100A6500E4FDFCD39000C3E09D9000C2E09C401ED5
:100A75009000BFE0FBA3E475F001120089A9F0FA2C
:0E0A8500120026FF120C370DBD00010C80D5AB
:010A93002240
:0300000002070CE8
:0C070C00787FE4F6D8FD758120020753C9
:10002600BB010689828A83E0225002E722BBFE02D8
:09003600E32289828A83E493220B
:10003F00BB010689828A83F0225002F722BBFE01A0
:02004F00F3229A
:10005100F8BB010DE58229F582E5833AF583E8F0E5
:10006100225006E92582C8F622BBFE05E92582C891
:02007100F22279
:10007300C5F0F8A3E028F0C5F0F8E5821582700218
:060083001583E038F022B5
:10008900A3F8E0C5F025F0F0E5821582700215832A
:06009900E0C838F0E82287
:10009F0075F008758200EF2FFFEE33FECD33CDCC18
:1000AF0033CCC58233C5829BED9AEC99E58298409B
:1000BF000CF582EE9BFEED9AFDEC99FC0FD5F0D678
:1000CF00E4CEFBE4CDFAE4CCF9A88222B800C1B9A2
:1000DF000059BA002DEC8BF084CFCECDFCE5F0CBE0
:1000EF00F97818EF2FFFEE33FEED33FDEC33FCEB19
:1000FF0033FB10D703994004EB99FB0FD8E5E4F9D4
:10010F00FA227818EF2FFFEE33FEED33FDEC33FCC0
:10011F00C933C910D7059BE99A4007EC9BFCE99AB4
:10012F00F90FD8E0E4C9FAE4CCFB2275F010EF2FF9
:10013F00FFEE33FEED33FDCC33CCC833C810D707F9
:10014F009BEC9AE899400AED9BFDEC9AFCE899F834
:0E015F000FD5F0DAE4CDFBE4CCFAE4C8F922C7
:10016D00EB9FF5F0EA9E42F0E99D42F0E89C45F0E8
:01017D00225F
:10017E00E8600FECC313FCED13FDEE13FEEF13FF5F
:03018E00D8F12283
:0C019100ECF0A3EDF0A3EEF0A3EFF022E1
:10019D00A8828583F0D083D0821201B41201B412EB
:1001AD0001B41201B4E473E493A3C583C5F0C58310
:1001BD00C8C582C8F0A3C583C5F0C583C8C582C8AC
:0101CD00220F
:100718000209FDE493A3F8E493A34003F68001F2F1
:1007280008DFF48029E493A3F85407240CC8C333E2
:10073800C4540F4420C8834004F456800146F6DFB1
:10074800E4800B01020408102040809005D7E47E65
:10075800019360BCA3FF543F30E509541FFEE493A6
:10076800A360010ECF54C025E060A840B8E493A36D
:10077800FAE493A3F8E493A3C8C582C8CAC583CA98
:10078800F0A3C8C582C8CAC583CADFE9DEE780BE50
:010678000081
:00000001FF
