:0200000017C027
:14001A003F065B4F666D7D077F6F777C395E79713F3F3F3F2E
:14002E003F3FCFE5D2E0CDBFDEBFC051D0400AEA08830024ED
:14004200E6E6F0E010E0E636F10711F00192FBCF0083EAE25D
:14005600F0E0A0E6B0E010E0E033F10721F0C89531960D92E1
:14006A00F9CF3DD0FFCF01E010E002C00F5F1F4F0637E4E06F
:14007E001E07D0F308956ED0602F712F4427552703C0EFDF04
:140092004F5F5F4F46175707D0F365D008958FE381BB8FEF82
:1400A60087BB82BB88BB089542D0442716C080E690E0E42FAB
:1400BA00FF27E80FF91F208028BA01E0142F51D0202E209434
:1400CE0022BACFDF01E0142F4AD022B2202A22BA439546300E
:1400E20040F32AD00895222425BED9DF20C044271CC06627AB
:1400F60011C08AE190E0242E3324280E391EE22DF32DC89588
:14010A0080E690E0E62FFF27E80FF91F00826395663068F356
:14011E00662702C0C5DF6395683CE0F34395403110F3DFCF71
:1401320008955A934A930895E1E049915991E0FD08956991BC
:140146007991E1FD0895A990B990E2FD0895C990D990E3FD80
:14015A000895E990F99008957A936A93E6CFE2E0E8CF1123E9
:0A016E0019F0000F1A95FBCF089559
:00000001FF
