:03000000020003F8
:0C000300787FE4F6D8FD75810A02004AFF
:0300C600010A002C
:0E00B200E4FEEEC39F50077D0DDDFE0E80F4D0
:0100C000221D
:10008F0020B51F7F141200B220B517050AE50A2408
:10009F00FE6007047009C2B38005D2B3E4F50A30DD
:0200AF00B5FD9D
:0100B100222C
:0500C10012008F80FB1E
:10000F000200C1E493A3F8E493A34003F68001F246
:10001F0008DFF48029E493A3F85407240CC8C333F2
:10002F00C4540F4420C8834004F456800146F6DFC1
:10003F00E4800B01020408102040809000C6E47E8B
:10004F00019360BCA3FF543F30E509541FFEE493B6
:10005F00A360010ECF54C025E060A840B8E493A37D
:10006F00FAE493A3F8E493A3C8C582C8CAC583CAA8
:10007F00F0A3C8C582C8CAC583CADFE9DEE780BE60
:0100C9000036
:00000001FF
